{
  "_format": "hh-sol-artifact-1",
  "contractName": "UFi",
  "sourceName": "contracts/UFi.sol",
  "abi": [
    {
      "inputs": [
        {
          "internalType": "address",
          "name": "_aaveLendingPoolAddress",
          "type": "address"
        },
        {
          "internalType": "address",
          "name": "_sponsorAddress",
          "type": "address"
        }
      ],
      "stateMutability": "nonpayable",
      "type": "constructor"
    },
    {
      "anonymous": false,
      "inputs": [
        {
          "indexed": true,
          "internalType": "address",
          "name": "applicant",
          "type": "address"
        },
        {
          "indexed": false,
          "internalType": "uint256",
          "name": "loanAmount",
          "type": "uint256"
        }
      ],
      "name": "LoanRequestCreated",
      "type": "event"
    },
    {
      "anonymous": false,
      "inputs": [
        {
          "indexed": false,
          "internalType": "uint256",
          "name": "requestIndex",
          "type": "uint256"
        },
        {
          "indexed": false,
          "internalType": "enum UFi.Status",
          "name": "status",
          "type": "uint8"
        }
      ],
      "name": "LoanStatusUpdated",
      "type": "event"
    },
    {
      "inputs": [],
      "name": "aaveLendingPool",
      "outputs": [
        {
          "internalType": "contract IPool",
          "name": "",
          "type": "address"
        }
      ],
      "stateMutability": "view",
      "type": "function"
    },
    {
      "inputs": [
        {
          "internalType": "uint256",
          "name": "_amount",
          "type": "uint256"
        },
        {
          "internalType": "address",
          "name": "_verifierAddress",
          "type": "address"
        },
        {
          "internalType": "uint256[2]",
          "name": "_pA",
          "type": "uint256[2]"
        },
        {
          "internalType": "uint256[2][2]",
          "name": "_pB",
          "type": "uint256[2][2]"
        },
        {
          "internalType": "uint256[2]",
          "name": "_pC",
          "type": "uint256[2]"
        },
        {
          "internalType": "uint256[4]",
          "name": "_pubSignals",
          "type": "uint256[4]"
        }
      ],
      "name": "loanRequest",
      "outputs": [],
      "stateMutability": "nonpayable",
      "type": "function"
    },
    {
      "inputs": [
        {
          "internalType": "uint256",
          "name": "",
          "type": "uint256"
        }
      ],
      "name": "loans",
      "outputs": [
        {
          "internalType": "address",
          "name": "applicant",
          "type": "address"
        },
        {
          "internalType": "uint256",
          "name": "loanAmount",
          "type": "uint256"
        },
        {
          "internalType": "address",
          "name": "verifierAddress",
          "type": "address"
        },
        {
          "internalType": "bytes32",
          "name": "proofHash",
          "type": "bytes32"
        },
        {
          "internalType": "enum UFi.Status",
          "name": "status",
          "type": "uint8"
        }
      ],
      "stateMutability": "view",
      "type": "function"
    },
    {
      "inputs": [],
      "name": "sponsorAddress",
      "outputs": [
        {
          "internalType": "address",
          "name": "",
          "type": "address"
        }
      ],
      "stateMutability": "view",
      "type": "function"
    },
    {
      "inputs": [],
      "name": "usdc",
      "outputs": [
        {
          "internalType": "contract IERC20",
          "name": "",
          "type": "address"
        }
      ],
      "stateMutability": "view",
      "type": "function"
    }
  ],
  "bytecode": "0x6080604052732c9678042d52b97d27f2bd2947f7111d93f3dd0d600360006101000a81548173ffffffffffffffffffffffffffffffffffffffff021916908373ffffffffffffffffffffffffffffffffffffffff160217905550600360009054906101000a900473ffffffffffffffffffffffffffffffffffffffff16600460006101000a81548173ffffffffffffffffffffffffffffffffffffffff021916908373ffffffffffffffffffffffffffffffffffffffff1602179055503480156100c857600080fd5b5060405162000fad38038062000fad83398181016040528101906100ec91906101d8565b81600160006101000a81548173ffffffffffffffffffffffffffffffffffffffff021916908373ffffffffffffffffffffffffffffffffffffffff16021790555080600260006101000a81548173ffffffffffffffffffffffffffffffffffffffff021916908373ffffffffffffffffffffffffffffffffffffffff1602179055505050610218565b600080fd5b600073ffffffffffffffffffffffffffffffffffffffff82169050919050565b60006101a58261017a565b9050919050565b6101b58161019a565b81146101c057600080fd5b50565b6000815190506101d2816101ac565b92915050565b600080604083850312156101ef576101ee610175565b5b60006101fd858286016101c3565b925050602061020e858286016101c3565b9150509250929050565b610d8580620002286000396000f3fe608060405234801561001057600080fd5b50600436106100575760003560e01c80633e413bee1461005c5780636aeefe101461007a578063d3a416f214610098578063e1ec3c68146100b4578063e9d337b8146100e8575b600080fd5b610064610106565b604051610071919061073c565b60405180910390f35b61008261012c565b60405161008f9190610778565b60405180910390f35b6100b260048036038101906100ad9190610865565b610152565b005b6100ce60048036038101906100c991906108f5565b6103f0565b6040516100df9594939291906109c1565b60405180910390f35b6100f0610483565b6040516100fd9190610a35565b60405180910390f35b600460009054906101000a900473ffffffffffffffffffffffffffffffffffffffff1681565b600260009054906101000a900473ffffffffffffffffffffffffffffffffffffffff1681565b600061016186868686866104a9565b905080156103a75760008260405160200161017c9190610a69565b60405160208183030381529060405280519060200120905060006040518060a001604052803373ffffffffffffffffffffffffffffffffffffffff1681526020018a81526020018973ffffffffffffffffffffffffffffffffffffffff168152602001838152602001600160038111156101f9576101f861094a565b5b815250908060018154018082558091505060019003906000526020600020906005020160009091909190915060008201518160000160006101000a81548173ffffffffffffffffffffffffffffffffffffffff021916908373ffffffffffffffffffffffffffffffffffffffff1602179055506020820151816001015560408201518160020160006101000a81548173ffffffffffffffffffffffffffffffffffffffff021916908373ffffffffffffffffffffffffffffffffffffffff1602179055506060820151816003015560808201518160040160006101000a81548160ff021916908360038111156102f2576102f161094a565b5b021790555050506000600160008054905061030d9190610ab3565b90503373ffffffffffffffffffffffffffffffffffffffff167fe5d7988e6522eed92cb682f9eae911a6cc15dbd3cc25f515149aaf2f65c171ea8a6040516103559190610ae7565b60405180910390a27fca025541f3b98a26e6b88a58dde138008b18408e6643c0b90cfed597351fe2c881600160405161038f929190610b02565b60405180910390a16103a089610536565b50506103e7565b7fca025541f3b98a26e6b88a58dde138008b18408e6643c0b90cfed597351fe2c860008054905060026040516103de929190610b02565b60405180910390a15b50505050505050565b6000818154811061040057600080fd5b90600052602060002090600502016000915090508060000160009054906101000a900473ffffffffffffffffffffffffffffffffffffffff16908060010154908060020160009054906101000a900473ffffffffffffffffffffffffffffffffffffffff16908060030154908060040160009054906101000a900460ff16905085565b600160009054906101000a900473ffffffffffffffffffffffffffffffffffffffff1681565b60008573ffffffffffffffffffffffffffffffffffffffff16635fe8c13b868686866040518563ffffffff1660e01b81526004016104ea9493929190610c0a565b602060405180830381865afa158015610507573d6000803e3d6000fd5b505050506040513d601f19601f8201168201806040525081019061052b9190610c89565b905095945050505050565b6000600290506000600160009054906101000a900473ffffffffffffffffffffffffffffffffffffffff1673ffffffffffffffffffffffffffffffffffffffff1663a415bcad600360009054906101000a900473ffffffffffffffffffffffffffffffffffffffff16858585600260009054906101000a900473ffffffffffffffffffffffffffffffffffffffff166040518663ffffffff1660e01b81526004016105e5959493929190610cd3565b600060405180830381600087803b1580156105ff57600080fd5b505af1158015610613573d6000803e3d6000fd5b50505050600460009054906101000a900473ffffffffffffffffffffffffffffffffffffffff1673ffffffffffffffffffffffffffffffffffffffff1663a9059cbb33856040518363ffffffff1660e01b8152600401610674929190610d26565b6020604051808303816000875af1158015610693573d6000803e3d6000fd5b505050506040513d601f19601f820116820180604052508101906106b79190610c89565b50505050565b600073ffffffffffffffffffffffffffffffffffffffff82169050919050565b6000819050919050565b60006107026106fd6106f8846106bd565b6106dd565b6106bd565b9050919050565b6000610714826106e7565b9050919050565b600061072682610709565b9050919050565b6107368161071b565b82525050565b6000602082019050610751600083018461072d565b92915050565b6000610762826106bd565b9050919050565b61077281610757565b82525050565b600060208201905061078d6000830184610769565b92915050565b600080fd5b6000819050919050565b6107ab81610798565b81146107b657600080fd5b50565b6000813590506107c8816107a2565b92915050565b6107d781610757565b81146107e257600080fd5b50565b6000813590506107f4816107ce565b92915050565b600080fd5b60008190508260206002028201111561081b5761081a6107fa565b5b92915050565b60008190508260406002028201111561083d5761083c6107fa565b5b92915050565b60008190508260206004028201111561085f5761085e6107fa565b5b92915050565b6000806000806000806101c0878903121561088357610882610793565b5b600061089189828a016107b9565b96505060206108a289828a016107e5565b95505060406108b389828a016107ff565b94505060806108c489828a01610821565b9350506101006108d689828a016107ff565b9250506101406108e889828a01610843565b9150509295509295509295565b60006020828403121561090b5761090a610793565b5b6000610919848285016107b9565b91505092915050565b61092b81610798565b82525050565b6000819050919050565b61094481610931565b82525050565b7f4e487b7100000000000000000000000000000000000000000000000000000000600052602160045260246000fd5b6004811061098a5761098961094a565b5b50565b600081905061099b82610979565b919050565b60006109ab8261098d565b9050919050565b6109bb816109a0565b82525050565b600060a0820190506109d66000830188610769565b6109e36020830187610922565b6109f06040830186610769565b6109fd606083018561093b565b610a0a60808301846109b2565b9695505050505050565b6000610a1f82610709565b9050919050565b610a2f81610a14565b82525050565b6000602082019050610a4a6000830184610a26565b92915050565b82818337505050565b610a6560808383610a50565b5050565b6000610a758284610a59565b60808201915081905092915050565b7f4e487b7100000000000000000000000000000000000000000000000000000000600052601160045260246000fd5b6000610abe82610798565b9150610ac983610798565b9250828203905081811115610ae157610ae0610a84565b5b92915050565b6000602082019050610afc6000830184610922565b92915050565b6000604082019050610b176000830185610922565b610b2460208301846109b2565b9392505050565b610b3760408383610a50565b5050565b600060029050919050565b600081905092915050565b6000819050919050565b610b6760408383610a50565b5050565b6000610b778383610b5b565b60408301905092915050565b600082905092915050565b6000604082019050919050565b610ba481610b3b565b610bae8184610b46565b9250610bb982610b51565b8060005b83811015610bf257610bcf8284610b83565b610bd98782610b6b565b9650610be483610b8e565b925050600181019050610bbd565b505050505050565b610c0660808383610a50565b5050565b600061018082019050610c206000830187610b2b565b610c2d6040830186610b9b565b610c3a60c0830185610b2b565b610c48610100830184610bfa565b95945050505050565b60008115159050919050565b610c6681610c51565b8114610c7157600080fd5b50565b600081519050610c8381610c5d565b92915050565b600060208284031215610c9f57610c9e610793565b5b6000610cad84828501610c74565b91505092915050565b600061ffff82169050919050565b610ccd81610cb6565b82525050565b600060a082019050610ce86000830188610769565b610cf56020830187610922565b610d026040830186610922565b610d0f6060830185610cc4565b610d1c6080830184610769565b9695505050505050565b6000604082019050610d3b6000830185610769565b610d486020830184610922565b939250505056fea264697066735822122014fc9dabbacb5adfb0d2611baf487af5eb78a1b1b7487cdf6f834e11162c3c1e64736f6c63430008140033",
  "linkReferences": {},
  "deployedLinkReferences": {}
}